{
  "_format": "hh-sol-artifact-1",
  "contractName": "FirstEvent",
  "sourceName": "contracts/FirstEvent.sol",
  "abi": [
    {
      "inputs": [
        {
          "internalType": "address",
          "name": "ownerAddress",
          "type": "address"
        }
      ],
      "stateMutability": "nonpayable",
      "type": "constructor"
    },
    {
      "anonymous": false,
      "inputs": [
        {
          "indexed": false,
          "internalType": "address",
          "name": "_nftAddress",
          "type": "address"
        },
        {
          "indexed": false,
          "internalType": "address",
          "name": "_recipient",
          "type": "address"
        }
      ],
      "name": "ChangedAddress",
      "type": "event"
    },
    {
      "anonymous": false,
      "inputs": [
        {
          "indexed": false,
          "internalType": "address",
          "name": "token",
          "type": "address"
        },
        {
          "indexed": false,
          "internalType": "uint256",
          "name": "amount",
          "type": "uint256"
        }
      ],
      "name": "ChangedPrice",
      "type": "event"
    },
    {
      "anonymous": false,
      "inputs": [
        {
          "indexed": false,
          "internalType": "uint256",
          "name": "_startTime",
          "type": "uint256"
        }
      ],
      "name": "ChangedStartTime",
      "type": "event"
    },
    {
      "anonymous": false,
      "inputs": [
        {
          "indexed": false,
          "internalType": "uint256",
          "name": "tokenId",
          "type": "uint256"
        },
        {
          "indexed": false,
          "internalType": "address",
          "name": "to",
          "type": "address"
        }
      ],
      "name": "GiveFree",
      "type": "event"
    },
    {
      "anonymous": false,
      "inputs": [
        {
          "indexed": false,
          "internalType": "uint256[]",
          "name": "tokenIds",
          "type": "uint256[]"
        },
        {
          "indexed": false,
          "internalType": "address",
          "name": "to",
          "type": "address"
        }
      ],
      "name": "MultiGiveFree",
      "type": "event"
    },
    {
      "anonymous": false,
      "inputs": [
        {
          "indexed": false,
          "internalType": "address",
          "name": "buyer",
          "type": "address"
        },
        {
          "indexed": false,
          "internalType": "uint256[]",
          "name": "tokenIds",
          "type": "uint256[]"
        },
        {
          "indexed": false,
          "internalType": "address",
          "name": "token",
          "type": "address"
        },
        {
          "indexed": false,
          "internalType": "uint256",
          "name": "amount",
          "type": "uint256"
        },
        {
          "indexed": false,
          "internalType": "address",
          "name": "receipt",
          "type": "address"
        }
      ],
      "name": "MultiPurchased",
      "type": "event"
    },
    {
      "anonymous": false,
      "inputs": [
        {
          "indexed": true,
          "internalType": "address",
          "name": "previousOwner",
          "type": "address"
        },
        {
          "indexed": true,
          "internalType": "address",
          "name": "newOwner",
          "type": "address"
        }
      ],
      "name": "OwnershipTransferred",
      "type": "event"
    },
    {
      "anonymous": false,
      "inputs": [
        {
          "indexed": false,
          "internalType": "address",
          "name": "buyer",
          "type": "address"
        },
        {
          "indexed": false,
          "internalType": "uint256",
          "name": "tokenId",
          "type": "uint256"
        },
        {
          "indexed": false,
          "internalType": "address",
          "name": "token",
          "type": "address"
        },
        {
          "indexed": false,
          "internalType": "uint256",
          "name": "amount",
          "type": "uint256"
        },
        {
          "indexed": false,
          "internalType": "address",
          "name": "receipt",
          "type": "address"
        }
      ],
      "name": "Purchased",
      "type": "event"
    },
    {
      "anonymous": false,
      "inputs": [
        {
          "indexed": false,
          "internalType": "address",
          "name": "operator",
          "type": "address"
        },
        {
          "indexed": false,
          "internalType": "address",
          "name": "from",
          "type": "address"
        },
        {
          "indexed": false,
          "internalType": "uint256",
          "name": "tokenId",
          "type": "uint256"
        },
        {
          "indexed": false,
          "internalType": "bytes",
          "name": "data",
          "type": "bytes"
        }
      ],
      "name": "Registerd",
      "type": "event"
    },
    {
      "inputs": [],
      "name": "_ERC721_RECEIVED",
      "outputs": [
        {
          "internalType": "bytes4",
          "name": "",
          "type": "bytes4"
        }
      ],
      "stateMutability": "view",
      "type": "function"
    },
    {
      "inputs": [
        {
          "internalType": "uint256",
          "name": "tokenId",
          "type": "uint256"
        },
        {
          "internalType": "address",
          "name": "to",
          "type": "address"
        }
      ],
      "name": "giveFree",
      "outputs": [],
      "stateMutability": "nonpayable",
      "type": "function"
    },
    {
      "inputs": [
        {
          "internalType": "uint256[]",
          "name": "tokenIds",
          "type": "uint256[]"
        },
        {
          "internalType": "address",
          "name": "to",
          "type": "address"
        }
      ],
      "name": "multiGiveFree",
      "outputs": [],
      "stateMutability": "nonpayable",
      "type": "function"
    },
    {
      "inputs": [
        {
          "internalType": "uint256[]",
          "name": "tokenIds",
          "type": "uint256[]"
        }
      ],
      "name": "multiPurchase",
      "outputs": [],
      "stateMutability": "nonpayable",
      "type": "function"
    },
    {
      "inputs": [],
      "name": "nftAddress",
      "outputs": [
        {
          "internalType": "address",
          "name": "",
          "type": "address"
        }
      ],
      "stateMutability": "view",
      "type": "function"
    },
    {
      "inputs": [
        {
          "internalType": "address",
          "name": "operator",
          "type": "address"
        },
        {
          "internalType": "address",
          "name": "from",
          "type": "address"
        },
        {
          "internalType": "uint256",
          "name": "tokenId",
          "type": "uint256"
        },
        {
          "internalType": "bytes",
          "name": "data",
          "type": "bytes"
        }
      ],
      "name": "onERC721Received",
      "outputs": [
        {
          "internalType": "bytes4",
          "name": "",
          "type": "bytes4"
        }
      ],
      "stateMutability": "nonpayable",
      "type": "function"
    },
    {
      "inputs": [],
      "name": "owner",
      "outputs": [
        {
          "internalType": "address",
          "name": "",
          "type": "address"
        }
      ],
      "stateMutability": "view",
      "type": "function"
    },
    {
      "inputs": [],
      "name": "priceAmount",
      "outputs": [
        {
          "internalType": "uint256",
          "name": "",
          "type": "uint256"
        }
      ],
      "stateMutability": "view",
      "type": "function"
    },
    {
      "inputs": [],
      "name": "priceToken",
      "outputs": [
        {
          "internalType": "address",
          "name": "",
          "type": "address"
        }
      ],
      "stateMutability": "view",
      "type": "function"
    },
    {
      "inputs": [
        {
          "internalType": "uint256",
          "name": "tokenId",
          "type": "uint256"
        }
      ],
      "name": "purchase",
      "outputs": [],
      "stateMutability": "nonpayable",
      "type": "function"
    },
    {
      "inputs": [],
      "name": "recipient",
      "outputs": [
        {
          "internalType": "address",
          "name": "",
          "type": "address"
        }
      ],
      "stateMutability": "view",
      "type": "function"
    },
    {
      "inputs": [
        {
          "internalType": "address",
          "name": "_nftAddress",
          "type": "address"
        },
        {
          "internalType": "address",
          "name": "_recipient",
          "type": "address"
        }
      ],
      "name": "setAddress",
      "outputs": [],
      "stateMutability": "nonpayable",
      "type": "function"
    },
    {
      "inputs": [
        {
          "internalType": "address",
          "name": "_token",
          "type": "address"
        },
        {
          "internalType": "uint256",
          "name": "_amount",
          "type": "uint256"
        }
      ],
      "name": "setPrice",
      "outputs": [],
      "stateMutability": "nonpayable",
      "type": "function"
    },
    {
      "inputs": [
        {
          "internalType": "uint256",
          "name": "_startTime",
          "type": "uint256"
        }
      ],
      "name": "setStartTime",
      "outputs": [],
      "stateMutability": "nonpayable",
      "type": "function"
    },
    {
      "inputs": [],
      "name": "startTime",
      "outputs": [
        {
          "internalType": "uint256",
          "name": "",
          "type": "uint256"
        }
      ],
      "stateMutability": "view",
      "type": "function"
    },
    {
      "inputs": [
        {
          "internalType": "address",
          "name": "newOwner",
          "type": "address"
        }
      ],
      "name": "transferOwnership",
      "outputs": [],
      "stateMutability": "nonpayable",
      "type": "function"
    }
  ],
  "bytecode": "0x608060405234801561001057600080fd5b50604051611cb1380380611cb183398101604081905261002f9161007d565b600080546001600160a01b0319166001600160a01b03831690811782556040519091907f8be0079c531659141344cd1fd0a4f28419497f9722a3daafe3b4186f6b6457e0908290a3506100ad565b60006020828403121561008f57600080fd5b81516001600160a01b03811681146100a657600080fd5b9392505050565b611bf5806100bc6000396000f3fe608060405234801561001057600080fd5b50600436106100ff5760003560e01c806366d003ac11610097578063cca4d06611610066578063cca4d06614610213578063ec42a7ae14610226578063efef39a114610239578063f2fde38b1461024c57600080fd5b806366d003ac146101d857806378e97925146101eb57806388290adc146101f45780638da5cb5b1461020257600080fd5b80633b58524d116100d35780633b58524d1461018c5780633e0a322d1461019f57806352126e23146101b25780635bf8633a146101c557600080fd5b8062e4768b1461010457806303cb655814610119578063150b7a02146101355780632ff6fe7614610161575b600080fd5b610117610112366004611793565b61025f565b005b61012260045481565b6040519081526020015b60405180910390f35b6101486101433660046117bf565b610380565b6040516001600160e01b0319909116815260200161012c565b600354610174906001600160a01b031681565b6040516001600160a01b03909116815260200161012c565b61011761019a36600461185e565b6103d3565b6101176101ad366004611897565b6104f8565b6101176101c0366004611961565b6105e5565b600154610174906001600160a01b031681565b600254610174906001600160a01b031681565b61012260055481565b610148630a85bd0160e11b81565b6000546001600160a01b0316610174565b6101176102213660046119a8565b61092f565b6101176102343660046119cd565b610bc1565b610117610247366004611897565b61114a565b61011761025a366004611a0a565b61164a565b6102676116c3565b60065460ff161515600114156102ad5760405162461bcd60e51b8152602060048201526006602482015265696e2075736560d01b60448201526064015b60405180910390fd5b6006805460ff191660011790556003546001600160a01b039081169083161415806102da57508060045414155b6103155760405162461bcd60e51b815260206004820152600c60248201526b73616d65206164647265737360a01b60448201526064016102a4565b600380546001600160a01b0319166001600160a01b038416908117909155600482905560408051918252602082018390527fe0c05b9af9e3017e2045a977c5e00fdd3e58a7d2747ca3ced47b2abbe696bc0391015b60405180910390a150506006805460ff19169055565b60007f0d7e371dfd52c0855bb1246b7b34f5908646e1d170f9cc532c07b39a87863bec86868686866040516103b9959493929190611a2e565b60405180910390a150630a85bd0160e11b95945050505050565b6103db6116c3565b60065460ff1615156001141561041c5760405162461bcd60e51b8152602060048201526006602482015265696e2075736560d01b60448201526064016102a4565b6006805460ff19166001908117909155546001600160a01b0390811690831614158061045657506002546001600160a01b03828116911614155b6104915760405162461bcd60e51b815260206004820152600c60248201526b73616d65206164647265737360a01b60448201526064016102a4565b600180546001600160a01b038481166001600160a01b03199283168117909355600280549185169190921681179091556040805192835260208301919091527f0f71607d0c676393cbebe7715d7793e2b3b0b68d63e6e9a88c1a4ae08052f675910161036a565b6105006116c3565b60065460ff161515600114156105415760405162461bcd60e51b8152602060048201526006602482015265696e2075736560d01b60448201526064016102a4565b6006805460ff191660011790556005548114156105a05760405162461bcd60e51b815260206004820152600e60248201527f73616d6520737461727454696d6500000000000000000000000000000000000060448201526064016102a4565b60058190556040518181527f945f22ad10b76f4bb65f1a3dfb342d5e389d38a80f75dd53f951f9017c0050269060200160405180910390a1506006805460ff19169055565b6105ed6116c3565b60065460ff1615156001141561062e5760405162461bcd60e51b8152602060048201526006602482015265696e2075736560d01b60448201526064016102a4565b6006805460ff19166001179055806001600160a01b0381166106815760405162461bcd60e51b815260206004820152600c60248201526b7a65726f206164647265737360a01b60448201526064016102a4565b6001546001600160a01b0316806106c95760405162461bcd60e51b815260206004820152600c60248201526b7a65726f206164647265737360a01b60448201526064016102a4565b83516107015760405162461bcd60e51b81526020600482015260076024820152666e6f7468696e6760c81b60448201526064016102a4565b6001600160a01b0383163014156107435760405162461bcd60e51b8152602060048201526006602482015265697427206d6560d01b60448201526064016102a4565b60005b84518110156108e557600154855130916001600160a01b031690636352211e9088908590811061077857610778611a82565b60200260200101516040518263ffffffff1660e01b815260040161079e91815260200190565b60206040518083038186803b1580156107b657600080fd5b505afa1580156107ca573d6000803e3d6000fd5b505050506040513d601f19601f820116820180604052508101906107ee9190611a98565b6001600160a01b0316146108335760405162461bcd60e51b815260206004820152600c60248201526b697427206e6f74206d696e6560a01b60448201526064016102a4565b60015485516001600160a01b03909116906342842e0e903090879089908690811061086057610860611a82565b60209081029190910101516040516001600160e01b031960e086901b1681526001600160a01b0393841660048201529290911660248301526044820152606401600060405180830381600087803b1580156108ba57600080fd5b505af11580156108ce573d6000803e3d6000fd5b5050505080806108dd90611acb565b915050610746565b507ff761cbc25e2afc36996a152a73400fd3096c3ccd5bab08743a402dfbee15668f8484604051610917929190611b21565b60405180910390a150506006805460ff191690555050565b6109376116c3565b60065460ff161515600114156109785760405162461bcd60e51b8152602060048201526006602482015265696e2075736560d01b60448201526064016102a4565b6006805460ff19166001179055806001600160a01b0381166109cb5760405162461bcd60e51b815260206004820152600c60248201526b7a65726f206164647265737360a01b60448201526064016102a4565b6001546001600160a01b031680610a135760405162461bcd60e51b815260206004820152600c60248201526b7a65726f206164647265737360a01b60448201526064016102a4565b6001546040516331a9108f60e11b81526004810186905230916001600160a01b031690636352211e9060240160206040518083038186803b158015610a5757600080fd5b505afa158015610a6b573d6000803e3d6000fd5b505050506040513d601f19601f82011682018060405250810190610a8f9190611a98565b6001600160a01b031614610ad45760405162461bcd60e51b815260206004820152600c60248201526b697427206e6f74206d696e6560a01b60448201526064016102a4565b6001600160a01b038316301415610b165760405162461bcd60e51b8152602060048201526006602482015265697427206d6560d01b60448201526064016102a4565b600154604051632142170760e11b81523060048201526001600160a01b03858116602483015260448201879052909116906342842e0e90606401600060405180830381600087803b158015610b6a57600080fd5b505af1158015610b7e573d6000803e3d6000fd5b5050604080518781526001600160a01b03871660208201527fde0d6e5f2f65bbe0e06c8021330045d938484a26d3ab50121da18b3c036ac7d29350019050610917565b60065460ff16151560011415610c025760405162461bcd60e51b8152602060048201526006602482015265696e2075736560d01b60448201526064016102a4565b6006805460ff1916600117905560055415801590610c21575042600554105b610c5f5760405162461bcd60e51b815260206004820152600f60248201526e1b9bdd081cd85b19481c195c9a5bd9608a1b60448201526064016102a4565b6003546001600160a01b031680610ca75760405162461bcd60e51b815260206004820152600c60248201526b7a65726f206164647265737360a01b60448201526064016102a4565b6002546001600160a01b031680610cef5760405162461bcd60e51b815260206004820152600c60248201526b7a65726f206164647265737360a01b60448201526064016102a4565b60045480610d2c5760405162461bcd60e51b815260206004820152600a6024820152697a65726f2076616c756560b01b60448201526064016102a4565b8351610d645760405162461bcd60e51b81526020600482015260076024820152666e6f7468696e6760c81b60448201526064016102a4565b8351600454600090610d77908390611b4c565b600354604051636eb1769f60e11b815233600482015230602482015291925082916001600160a01b039091169063dd62ed3e9060440160206040518083038186803b158015610dc557600080fd5b505afa158015610dd9573d6000803e3d6000fd5b505050506040513d601f19601f82011682018060405250810190610dfd9190611b6b565b1015610e595760405162461bcd60e51b815260206004820152602560248201527f746f6b656e20617070726f76616c20616d6f756e7420697320696e737566666960448201526418da595b9d60da1b60648201526084016102a4565b60005b82811015610f5a57600154875130916001600160a01b031690636352211e908a9085908110610e8d57610e8d611a82565b60200260200101516040518263ffffffff1660e01b8152600401610eb391815260200190565b60206040518083038186803b158015610ecb57600080fd5b505afa158015610edf573d6000803e3d6000fd5b505050506040513d601f19601f82011682018060405250810190610f039190611a98565b6001600160a01b031614610f485760405162461bcd60e51b815260206004820152600c60248201526b697427206e6f74206d696e6560a01b60448201526064016102a4565b80610f5281611acb565b915050610e5c565b506003546002546040516323b872dd60e01b81523360048201526001600160a01b039182166024820152604481018490529116906323b872dd90606401602060405180830381600087803b158015610fb157600080fd5b505af1158015610fc5573d6000803e3d6000fd5b505050506040513d601f19601f82011682018060405250810190610fe99190611b84565b6110275760405162461bcd60e51b815260206004820152600f60248201526e7061796d656e74206661696c75726560881b60448201526064016102a4565b60005b828110156110e45760015487516001600160a01b03909116906342842e0e90309033908b908690811061105f5761105f611a82565b60209081029190910101516040516001600160e01b031960e086901b1681526001600160a01b0393841660048201529290911660248301526044820152606401600060405180830381600087803b1580156110b957600080fd5b505af11580156110cd573d6000803e3d6000fd5b5050505080806110dc90611acb565b91505061102a565b506003546004546002546040517f0aebc3243f9180e1bcf9f06f11b8c6fcec838524e70e81124b600aa92abccf99936111309333938c936001600160a01b039384169390911690611ba6565b60405180910390a150506006805460ff1916905550505050565b60065460ff1615156001141561118b5760405162461bcd60e51b8152602060048201526006602482015265696e2075736560d01b60448201526064016102a4565b6006805460ff19166001179055600554158015906111aa575042600554105b6111e85760405162461bcd60e51b815260206004820152600f60248201526e1b9bdd081cd85b19481c195c9a5bd9608a1b60448201526064016102a4565b6003546001600160a01b0316806112305760405162461bcd60e51b815260206004820152600c60248201526b7a65726f206164647265737360a01b60448201526064016102a4565b6002546001600160a01b0316806112785760405162461bcd60e51b815260206004820152600c60248201526b7a65726f206164647265737360a01b60448201526064016102a4565b600454806112b55760405162461bcd60e51b815260206004820152600a6024820152697a65726f2076616c756560b01b60448201526064016102a4565b600554158015906112c7575042600554105b6113055760405162461bcd60e51b815260206004820152600f60248201526e1b9bdd081cd85b19481c195c9a5bd9608a1b60448201526064016102a4565b6001546040516331a9108f60e11b81526004810186905230916001600160a01b031690636352211e9060240160206040518083038186803b15801561134957600080fd5b505afa15801561135d573d6000803e3d6000fd5b505050506040513d601f19601f820116820180604052508101906113819190611a98565b6001600160a01b0316146113c65760405162461bcd60e51b815260206004820152600c60248201526b697427206e6f74206d696e6560a01b60448201526064016102a4565b60048054600354604051636eb1769f60e11b8152339381019390935230602484015290916001600160a01b039091169063dd62ed3e9060440160206040518083038186803b15801561141757600080fd5b505afa15801561142b573d6000803e3d6000fd5b505050506040513d601f19601f8201168201806040525081019061144f9190611b6b565b10156114ab5760405162461bcd60e51b815260206004820152602560248201527f746f6b656e20617070726f76616c20616d6f756e7420697320696e737566666960448201526418da595b9d60da1b60648201526084016102a4565b600354600254600480546040516323b872dd60e01b815233928101929092526001600160a01b03928316602483015260448201529116906323b872dd90606401602060405180830381600087803b15801561150557600080fd5b505af1158015611519573d6000803e3d6000fd5b505050506040513d601f19601f8201168201806040525081019061153d9190611b84565b61157b5760405162461bcd60e51b815260206004820152600f60248201526e7061796d656e74206661696c75726560881b60448201526064016102a4565b600154604051632142170760e11b8152306004820152336024820152604481018690526001600160a01b03909116906342842e0e90606401600060405180830381600087803b1580156115cd57600080fd5b505af11580156115e1573d6000803e3d6000fd5b505060035460045460025460408051338152602081018b90526001600160a01b039485169181019190915260608101929092529190911660808201527fef68deebf76cc4a82e1af5e7f07c7b432b6a72160a595d90a838a068b76e993f925060a0019050610917565b6116526116c3565b6001600160a01b0381166116b75760405162461bcd60e51b815260206004820152602660248201527f4f776e61626c653a206e6577206f776e657220697320746865207a65726f206160448201526564647265737360d01b60648201526084016102a4565b6116c08161172e565b50565b336116d66000546001600160a01b031690565b6001600160a01b03161461172c5760405162461bcd60e51b815260206004820181905260248201527f4f776e61626c653a2063616c6c6572206973206e6f7420746865206f776e657260448201526064016102a4565b565b600080546001600160a01b038381166001600160a01b0319831681178455604051919092169283917f8be0079c531659141344cd1fd0a4f28419497f9722a3daafe3b4186f6b6457e09190a35050565b6001600160a01b03811681146116c057600080fd5b600080604083850312156117a657600080fd5b82356117b18161177e565b946020939093013593505050565b6000806000806000608086880312156117d757600080fd5b85356117e28161177e565b945060208601356117f28161177e565b935060408601359250606086013567ffffffffffffffff8082111561181657600080fd5b818801915088601f83011261182a57600080fd5b81358181111561183957600080fd5b89602082850101111561184b57600080fd5b9699959850939650602001949392505050565b6000806040838503121561187157600080fd5b823561187c8161177e565b9150602083013561188c8161177e565b809150509250929050565b6000602082840312156118a957600080fd5b5035919050565b634e487b7160e01b600052604160045260246000fd5b600082601f8301126118d757600080fd5b8135602067ffffffffffffffff808311156118f4576118f46118b0565b8260051b604051601f19603f83011681018181108482111715611919576119196118b0565b60405293845285810183019383810192508785111561193757600080fd5b83870191505b848210156119565781358352918301919083019061193d565b979650505050505050565b6000806040838503121561197457600080fd5b823567ffffffffffffffff81111561198b57600080fd5b611997858286016118c6565b925050602083013561188c8161177e565b600080604083850312156119bb57600080fd5b82359150602083013561188c8161177e565b6000602082840312156119df57600080fd5b813567ffffffffffffffff8111156119f657600080fd5b611a02848285016118c6565b949350505050565b600060208284031215611a1c57600080fd5b8135611a278161177e565b9392505050565b60006001600160a01b03808816835280871660208401525084604083015260806060830152826080830152828460a0840137600060a0848401015260a0601f19601f85011683010190509695505050505050565b634e487b7160e01b600052603260045260246000fd5b600060208284031215611aaa57600080fd5b8151611a278161177e565b634e487b7160e01b600052601160045260246000fd5b6000600019821415611adf57611adf611ab5565b5060010190565b600081518084526020808501945080840160005b83811015611b1657815187529582019590820190600101611afa565b509495945050505050565b604081526000611b346040830185611ae6565b90506001600160a01b03831660208301529392505050565b6000816000190483118215151615611b6657611b66611ab5565b500290565b600060208284031215611b7d57600080fd5b5051919050565b600060208284031215611b9657600080fd5b81518015158114611a2757600080fd5b60006001600160a01b03808816835260a06020840152611bc960a0840188611ae6565b958116604084015260608301949094525091166080909101529291505056fea164736f6c6343000809000a",
  "linkReferences": {},
  "deployedLinkReferences": {}
}