{
  "_format": "hh-sol-artifact-1",
  "contractName": "TitanNFTProxy",
  "sourceName": "contracts/TitanNFTProxy.sol",
  "abi": [
    {
      "inputs": [
        {
          "internalType": "string",
          "name": "name_",
          "type": "string"
        },
        {
          "internalType": "string",
          "name": "symbol_",
          "type": "string"
        },
        {
          "internalType": "address",
          "name": "ownerAddress",
          "type": "address"
        }
      ],
      "stateMutability": "nonpayable",
      "type": "constructor"
    },
    {
      "anonymous": false,
      "inputs": [
        {
          "indexed": true,
          "internalType": "address",
          "name": "previousOwner",
          "type": "address"
        },
        {
          "indexed": true,
          "internalType": "address",
          "name": "newOwner",
          "type": "address"
        }
      ],
      "name": "OwnershipTransferred",
      "type": "event"
    },
    {
      "anonymous": false,
      "inputs": [
        {
          "indexed": true,
          "internalType": "address",
          "name": "implementation",
          "type": "address"
        }
      ],
      "name": "Upgraded",
      "type": "event"
    },
    {
      "stateMutability": "payable",
      "type": "fallback"
    },
    {
      "inputs": [],
      "name": "_ERC721_RECEIVED",
      "outputs": [
        {
          "internalType": "bytes4",
          "name": "",
          "type": "bytes4"
        }
      ],
      "stateMutability": "view",
      "type": "function"
    },
    {
      "inputs": [],
      "name": "_INTERFACE_ID_ERC721",
      "outputs": [
        {
          "internalType": "bytes4",
          "name": "",
          "type": "bytes4"
        }
      ],
      "stateMutability": "view",
      "type": "function"
    },
    {
      "inputs": [],
      "name": "_INTERFACE_ID_ERC721_ENUMERABLE",
      "outputs": [
        {
          "internalType": "bytes4",
          "name": "",
          "type": "bytes4"
        }
      ],
      "stateMutability": "view",
      "type": "function"
    },
    {
      "inputs": [],
      "name": "_INTERFACE_ID_ERC721_METADATA",
      "outputs": [
        {
          "internalType": "bytes4",
          "name": "",
          "type": "bytes4"
        }
      ],
      "stateMutability": "view",
      "type": "function"
    },
    {
      "inputs": [
        {
          "internalType": "uint256",
          "name": "",
          "type": "uint256"
        }
      ],
      "name": "_allTokens",
      "outputs": [
        {
          "internalType": "uint256",
          "name": "",
          "type": "uint256"
        }
      ],
      "stateMutability": "view",
      "type": "function"
    },
    {
      "inputs": [
        {
          "internalType": "uint256",
          "name": "",
          "type": "uint256"
        }
      ],
      "name": "_allTokensIndex",
      "outputs": [
        {
          "internalType": "uint256",
          "name": "",
          "type": "uint256"
        }
      ],
      "stateMutability": "view",
      "type": "function"
    },
    {
      "inputs": [],
      "name": "_baseURI",
      "outputs": [
        {
          "internalType": "string",
          "name": "",
          "type": "string"
        }
      ],
      "stateMutability": "view",
      "type": "function"
    },
    {
      "inputs": [],
      "name": "_name",
      "outputs": [
        {
          "internalType": "string",
          "name": "",
          "type": "string"
        }
      ],
      "stateMutability": "view",
      "type": "function"
    },
    {
      "inputs": [
        {
          "internalType": "address",
          "name": "",
          "type": "address"
        },
        {
          "internalType": "address",
          "name": "",
          "type": "address"
        }
      ],
      "name": "_operatorApprovals",
      "outputs": [
        {
          "internalType": "bool",
          "name": "",
          "type": "bool"
        }
      ],
      "stateMutability": "view",
      "type": "function"
    },
    {
      "inputs": [
        {
          "internalType": "address",
          "name": "",
          "type": "address"
        },
        {
          "internalType": "uint256",
          "name": "",
          "type": "uint256"
        }
      ],
      "name": "_ownedTokens",
      "outputs": [
        {
          "internalType": "uint256",
          "name": "",
          "type": "uint256"
        }
      ],
      "stateMutability": "view",
      "type": "function"
    },
    {
      "inputs": [
        {
          "internalType": "address",
          "name": "",
          "type": "address"
        }
      ],
      "name": "_ownedTokensCount",
      "outputs": [
        {
          "internalType": "uint256",
          "name": "_value",
          "type": "uint256"
        }
      ],
      "stateMutability": "view",
      "type": "function"
    },
    {
      "inputs": [
        {
          "internalType": "uint256",
          "name": "",
          "type": "uint256"
        }
      ],
      "name": "_ownedTokensIndex",
      "outputs": [
        {
          "internalType": "uint256",
          "name": "",
          "type": "uint256"
        }
      ],
      "stateMutability": "view",
      "type": "function"
    },
    {
      "inputs": [],
      "name": "_owner",
      "outputs": [
        {
          "internalType": "address",
          "name": "",
          "type": "address"
        }
      ],
      "stateMutability": "view",
      "type": "function"
    },
    {
      "inputs": [],
      "name": "_symbol",
      "outputs": [
        {
          "internalType": "string",
          "name": "",
          "type": "string"
        }
      ],
      "stateMutability": "view",
      "type": "function"
    },
    {
      "inputs": [
        {
          "internalType": "uint256",
          "name": "",
          "type": "uint256"
        }
      ],
      "name": "_tokenApprovals",
      "outputs": [
        {
          "internalType": "address",
          "name": "",
          "type": "address"
        }
      ],
      "stateMutability": "view",
      "type": "function"
    },
    {
      "inputs": [
        {
          "internalType": "uint256",
          "name": "",
          "type": "uint256"
        }
      ],
      "name": "_tokenAttributes",
      "outputs": [
        {
          "internalType": "bytes",
          "name": "",
          "type": "bytes"
        }
      ],
      "stateMutability": "view",
      "type": "function"
    },
    {
      "inputs": [
        {
          "internalType": "uint256",
          "name": "",
          "type": "uint256"
        }
      ],
      "name": "_tokenOwner",
      "outputs": [
        {
          "internalType": "address",
          "name": "",
          "type": "address"
        }
      ],
      "stateMutability": "view",
      "type": "function"
    },
    {
      "inputs": [
        {
          "internalType": "uint256",
          "name": "",
          "type": "uint256"
        }
      ],
      "name": "_tokenURIs",
      "outputs": [
        {
          "internalType": "string",
          "name": "",
          "type": "string"
        }
      ],
      "stateMutability": "view",
      "type": "function"
    },
    {
      "inputs": [],
      "name": "implementation",
      "outputs": [
        {
          "internalType": "address",
          "name": "",
          "type": "address"
        }
      ],
      "stateMutability": "view",
      "type": "function"
    },
    {
      "inputs": [],
      "name": "pauseProxy",
      "outputs": [
        {
          "internalType": "bool",
          "name": "",
          "type": "bool"
        }
      ],
      "stateMutability": "view",
      "type": "function"
    },
    {
      "inputs": [
        {
          "internalType": "bool",
          "name": "_pause",
          "type": "bool"
        }
      ],
      "name": "setProxyPause",
      "outputs": [],
      "stateMutability": "nonpayable",
      "type": "function"
    },
    {
      "inputs": [
        {
          "internalType": "bytes4",
          "name": "interfaceId",
          "type": "bytes4"
        }
      ],
      "name": "supportsInterface",
      "outputs": [
        {
          "internalType": "bool",
          "name": "",
          "type": "bool"
        }
      ],
      "stateMutability": "view",
      "type": "function"
    },
    {
      "inputs": [
        {
          "internalType": "address",
          "name": "newOwner",
          "type": "address"
        }
      ],
      "name": "transferOwnership",
      "outputs": [],
      "stateMutability": "nonpayable",
      "type": "function"
    },
    {
      "inputs": [
        {
          "internalType": "address",
          "name": "impl",
          "type": "address"
        }
      ],
      "name": "upgradeTo",
      "outputs": [],
      "stateMutability": "nonpayable",
      "type": "function"
    },
    {
      "stateMutability": "payable",
      "type": "receive"
    }
  ],
  "bytecode": "0x60806040523480156200001157600080fd5b506040516200119a3803806200119a833981016040819052620000349162000361565b620000466301ffc9a760e01b6200016a565b6200007360017f360894a13ba1a3210667c828492db98dca3e2076cc3735a920a3ca505d382bbd620003ee565b7f360894a13ba1a3210667c828492db98dca3e2076cc3735a920a3ca505d382bbc14620000a457620000a462000414565b600180546001600160a01b0319166001600160a01b0383161790558251620000d4906002906020860190620001ee565b508151620000ea906003906020850190620001ee565b50600f805460ff19169055620001076380ac58cd60e01b6200016a565b62000119635b5e139f60e01b6200016a565b6200012b63780e9d6360e01b6200016a565b6040516001600160a01b038216906000907f8be0079c531659141344cd1fd0a4f28419497f9722a3daafe3b4186f6b6457e0908290a350505062000467565b6001600160e01b03198082161415620001c95760405162461bcd60e51b815260206004820152601c60248201527f4552433136353a20696e76616c696420696e7465726661636520696400000000604482015260640160405180910390fd5b6001600160e01b0319166000908152602081905260409020805460ff19166001179055565b828054620001fc906200042a565b90600052602060002090601f0160209004810192826200022057600085556200026b565b82601f106200023b57805160ff19168380011785556200026b565b828001600101855582156200026b579182015b828111156200026b5782518255916020019190600101906200024e565b50620002799291506200027d565b5090565b5b808211156200027957600081556001016200027e565b634e487b7160e01b600052604160045260246000fd5b600082601f830112620002bc57600080fd5b81516001600160401b0380821115620002d957620002d962000294565b604051601f8301601f19908116603f0116810190828211818310171562000304576200030462000294565b816040528381526020925086838588010111156200032157600080fd5b600091505b8382101562000345578582018301518183018401529082019062000326565b83821115620003575760008385830101525b9695505050505050565b6000806000606084860312156200037757600080fd5b83516001600160401b03808211156200038f57600080fd5b6200039d87838801620002aa565b94506020860151915080821115620003b457600080fd5b50620003c386828701620002aa565b604086015190935090506001600160a01b0381168114620003e357600080fd5b809150509250925092565b6000828210156200040f57634e487b7160e01b600052601160045260246000fd5b500390565b634e487b7160e01b600052600160045260246000fd5b600181811c908216806200043f57607f821691505b602082108114156200046157634e487b7160e01b600052602260045260246000fd5b50919050565b610d2380620004776000396000f3fe60806040526004361061018f5760003560e01c8063a2e9b439116100d6578063b2bdfa7b1161007f578063edc3bc3f11610059578063edc3bc3f1461050b578063f2fde38b14610546578063f663171814610566576101e1565b8063b2bdfa7b146104bb578063d28d8852146104db578063dece6854146104f0576101e1565b8063aa5965ae116100b0578063aa5965ae1461046b578063b01ac5911461048b578063b09f1266146104a6576101e1565b8063a2e9b439146103db578063a726366514610408578063a7cc013614610435576101e1565b806363a8fd89116101385780637cb00d25116101125780637cb00d251461036c57806388290adc1461038c57806394a509dd146103c0576101e1565b806363a8fd8914610302578063743976a014610321578063796db31214610336576101e1565b80633659cfe6116101695780633659cfe6146102875780634f3c5f06146102a75780635c60da1b146102d5576101e1565b806301ffc9a7146101eb5780630bb78ec11461023a57806317a3a79c14610267576101e1565b366101e15760405162461bcd60e51b815260206004820152601460248201527f63616e6e6f74207265636569766520457468657200000000000000000000000060448201526064015b60405180910390fd5b6101e9610593565b005b3480156101f757600080fd5b50610225610206366004610b7b565b6001600160e01b03191660009081526020819052604090205460ff1690565b60405190151581526020015b60405180910390f35b34801561024657600080fd5b5061025a610255366004610bac565b61065b565b6040516102319190610c12565b34801561027357600080fd5b5061025a610282366004610bac565b6106f5565b34801561029357600080fd5b506101e96102a2366004610c41565b61070e565b3480156102b357600080fd5b506102c76102c2366004610c5c565b610887565b604051908152602001610231565b3480156102e157600080fd5b506102ea6108b8565b6040516001600160a01b039091168152602001610231565b34801561030e57600080fd5b50600f5461022590610100900460ff1681565b34801561032d57600080fd5b5061025a6108e7565b34801561034257600080fd5b506102ea610351366004610bac565b6007602052600090815260409020546001600160a01b031681565b34801561037857600080fd5b506101e9610387366004610c86565b6108f4565b34801561039857600080fd5b506103a7630a85bd0160e11b81565b6040516001600160e01b03199091168152602001610231565b3480156103cc57600080fd5b506103a7635b5e139f60e01b81565b3480156103e757600080fd5b506102c76103f6366004610bac565b600c6020526000908152604090205481565b34801561041457600080fd5b506102c7610423366004610bac565b600e6020526000908152604090205481565b34801561044157600080fd5b506102ea610450366004610bac565b6008602052600090815260409020546001600160a01b031681565b34801561047757600080fd5b506102c7610486366004610bac565b610968565b34801561049757600080fd5b506103a763780e9d6360e01b81565b3480156104b257600080fd5b5061025a610989565b3480156104c757600080fd5b506001546102ea906001600160a01b031681565b3480156104e757600080fd5b5061025a610996565b3480156104fc57600080fd5b506103a76380ac58cd60e01b81565b34801561051757600080fd5b50610225610526366004610ca8565b600a60209081526000928352604080842090915290825290205460ff1681565b34801561055257600080fd5b506101e9610561366004610c41565b6109a3565b34801561057257600080fd5b506102c7610581366004610c41565b60096020526000908152604090205481565b60006105bd7f360894a13ba1a3210667c828492db98dca3e2076cc3735a920a3ca505d382bbc5490565b90506001600160a01b038116158015906105df5750600f54610100900460ff16155b6106375760405162461bcd60e51b815260206004820152602360248201527f45524337323150726f78793a20696d706c204f522070726f78792069732066616044820152626c736560e81b60648201526084016101d8565b3660008037600080366000845af43d6000803e808015610656573d6000f35b3d6000fd5b6004602052600090815260409020805461067490610cdb565b80601f01602080910402602001604051908101604052809291908181526020018280546106a090610cdb565b80156106ed5780601f106106c2576101008083540402835291602001916106ed565b820191906000526020600020905b8154815290600101906020018083116106d057829003601f168201915b505050505081565b6005602052600090815260409020805461067490610cdb565b6001546001600160a01b031633146107685760405162461bcd60e51b815260206004820152601760248201527f63616c6c6572206973206e6f7420746865206f776e657200000000000000000060448201526064016101d8565b6001600160a01b0381166107be5760405162461bcd60e51b815260206004820152601a60248201527f45524337323150726f78793a20696e707574206973207a65726f00000000000060448201526064016101d8565b806001600160a01b03166107f07f360894a13ba1a3210667c828492db98dca3e2076cc3735a920a3ca505d382bbc5490565b6001600160a01b031614156108475760405162461bcd60e51b815260206004820152601160248201527f45524337323150726f78793a2073616d6500000000000000000000000000000060448201526064016101d8565b61085081610acb565b6040516001600160a01b038216907fbc7cd75a20ee27fd9adebab32041f755214dbc6bffa90cc0225b39da2e5c2d3b90600090a250565b600b60205281600052604060002081815481106108a357600080fd5b90600052602060002001600091509150505481565b60006108e27f360894a13ba1a3210667c828492db98dca3e2076cc3735a920a3ca505d382bbc5490565b905090565b6006805461067490610cdb565b6001546001600160a01b0316331461094e5760405162461bcd60e51b815260206004820152601760248201527f63616c6c6572206973206e6f7420746865206f776e657200000000000000000060448201526064016101d8565b600f80549115156101000261ff0019909216919091179055565b600d818154811061097857600080fd5b600091825260209091200154905081565b6003805461067490610cdb565b6002805461067490610cdb565b6001546001600160a01b031633146109fd5760405162461bcd60e51b815260206004820152601760248201527f63616c6c6572206973206e6f7420746865206f776e657200000000000000000060448201526064016101d8565b6001600160a01b038116610a625760405162461bcd60e51b815260206004820152602660248201527f4f776e61626c653a206e6577206f776e657220697320746865207a65726f206160448201526564647265737360d01b60648201526084016101d8565b6001546040516001600160a01b038084169216907f8be0079c531659141344cd1fd0a4f28419497f9722a3daafe3b4186f6b6457e090600090a36001805473ffffffffffffffffffffffffffffffffffffffff19166001600160a01b0392909216919091179055565b6001600160a01b0381163b610b575760405162461bcd60e51b815260206004820152604660248201527f50726f7879426173653a2043616e6e6f742073657420612070726f787920696d60448201527f706c656d656e746174696f6e20746f2061206e6f6e2d636f6e7472616374206160648201526564647265737360d01b608482015260a4016101d8565b7f360894a13ba1a3210667c828492db98dca3e2076cc3735a920a3ca505d382bbc55565b600060208284031215610b8d57600080fd5b81356001600160e01b031981168114610ba557600080fd5b9392505050565b600060208284031215610bbe57600080fd5b5035919050565b6000815180845260005b81811015610beb57602081850181015186830182015201610bcf565b81811115610bfd576000602083870101525b50601f01601f19169290920160200192915050565b602081526000610ba56020830184610bc5565b80356001600160a01b0381168114610c3c57600080fd5b919050565b600060208284031215610c5357600080fd5b610ba582610c25565b60008060408385031215610c6f57600080fd5b610c7883610c25565b946020939093013593505050565b600060208284031215610c9857600080fd5b81358015158114610ba557600080fd5b60008060408385031215610cbb57600080fd5b610cc483610c25565b9150610cd260208401610c25565b90509250929050565b600181811c90821680610cef57607f821691505b60208210811415610d1057634e487b7160e01b600052602260045260246000fd5b5091905056fea164736f6c6343000809000a",
  "linkReferences": {},
  "deployedLinkReferences": {}
}