{
  "_format": "hh-sol-artifact-1",
  "contractName": "TitanNFT",
  "sourceName": "contracts/TitanNFT.sol",
  "abi": [
    {
      "inputs": [
        {
          "internalType": "string",
          "name": "name_",
          "type": "string"
        },
        {
          "internalType": "string",
          "name": "symbol_",
          "type": "string"
        },
        {
          "internalType": "address",
          "name": "ownerAddress",
          "type": "address"
        }
      ],
      "stateMutability": "nonpayable",
      "type": "constructor"
    },
    {
      "anonymous": false,
      "inputs": [
        {
          "indexed": true,
          "internalType": "address",
          "name": "owner",
          "type": "address"
        },
        {
          "indexed": true,
          "internalType": "address",
          "name": "approved",
          "type": "address"
        },
        {
          "indexed": true,
          "internalType": "uint256",
          "name": "tokenId",
          "type": "uint256"
        }
      ],
      "name": "Approval",
      "type": "event"
    },
    {
      "anonymous": false,
      "inputs": [
        {
          "indexed": true,
          "internalType": "address",
          "name": "owner",
          "type": "address"
        },
        {
          "indexed": true,
          "internalType": "address",
          "name": "operator",
          "type": "address"
        },
        {
          "indexed": false,
          "internalType": "bool",
          "name": "approved",
          "type": "bool"
        }
      ],
      "name": "ApprovalForAll",
      "type": "event"
    },
    {
      "anonymous": false,
      "inputs": [
        {
          "indexed": false,
          "internalType": "uint256",
          "name": "tokenId",
          "type": "uint256"
        },
        {
          "indexed": false,
          "internalType": "bytes",
          "name": "attribute",
          "type": "bytes"
        }
      ],
      "name": "SetAttribute",
      "type": "event"
    },
    {
      "anonymous": false,
      "inputs": [
        {
          "indexed": true,
          "internalType": "address",
          "name": "from",
          "type": "address"
        },
        {
          "indexed": true,
          "internalType": "address",
          "name": "to",
          "type": "address"
        },
        {
          "indexed": true,
          "internalType": "uint256",
          "name": "tokenId",
          "type": "uint256"
        }
      ],
      "name": "Transfer",
      "type": "event"
    },
    {
      "inputs": [],
      "name": "_ERC721_RECEIVED",
      "outputs": [
        {
          "internalType": "bytes4",
          "name": "",
          "type": "bytes4"
        }
      ],
      "stateMutability": "view",
      "type": "function"
    },
    {
      "inputs": [],
      "name": "_INTERFACE_ID_ERC721",
      "outputs": [
        {
          "internalType": "bytes4",
          "name": "",
          "type": "bytes4"
        }
      ],
      "stateMutability": "view",
      "type": "function"
    },
    {
      "inputs": [],
      "name": "_INTERFACE_ID_ERC721_ENUMERABLE",
      "outputs": [
        {
          "internalType": "bytes4",
          "name": "",
          "type": "bytes4"
        }
      ],
      "stateMutability": "view",
      "type": "function"
    },
    {
      "inputs": [],
      "name": "_INTERFACE_ID_ERC721_METADATA",
      "outputs": [
        {
          "internalType": "bytes4",
          "name": "",
          "type": "bytes4"
        }
      ],
      "stateMutability": "view",
      "type": "function"
    },
    {
      "inputs": [
        {
          "internalType": "uint256",
          "name": "",
          "type": "uint256"
        }
      ],
      "name": "_allTokens",
      "outputs": [
        {
          "internalType": "uint256",
          "name": "",
          "type": "uint256"
        }
      ],
      "stateMutability": "view",
      "type": "function"
    },
    {
      "inputs": [
        {
          "internalType": "uint256",
          "name": "",
          "type": "uint256"
        }
      ],
      "name": "_allTokensIndex",
      "outputs": [
        {
          "internalType": "uint256",
          "name": "",
          "type": "uint256"
        }
      ],
      "stateMutability": "view",
      "type": "function"
    },
    {
      "inputs": [],
      "name": "_baseURI",
      "outputs": [
        {
          "internalType": "string",
          "name": "",
          "type": "string"
        }
      ],
      "stateMutability": "view",
      "type": "function"
    },
    {
      "inputs": [],
      "name": "_name",
      "outputs": [
        {
          "internalType": "string",
          "name": "",
          "type": "string"
        }
      ],
      "stateMutability": "view",
      "type": "function"
    },
    {
      "inputs": [
        {
          "internalType": "address",
          "name": "",
          "type": "address"
        },
        {
          "internalType": "address",
          "name": "",
          "type": "address"
        }
      ],
      "name": "_operatorApprovals",
      "outputs": [
        {
          "internalType": "bool",
          "name": "",
          "type": "bool"
        }
      ],
      "stateMutability": "view",
      "type": "function"
    },
    {
      "inputs": [
        {
          "internalType": "address",
          "name": "",
          "type": "address"
        },
        {
          "internalType": "uint256",
          "name": "",
          "type": "uint256"
        }
      ],
      "name": "_ownedTokens",
      "outputs": [
        {
          "internalType": "uint256",
          "name": "",
          "type": "uint256"
        }
      ],
      "stateMutability": "view",
      "type": "function"
    },
    {
      "inputs": [
        {
          "internalType": "address",
          "name": "",
          "type": "address"
        }
      ],
      "name": "_ownedTokensCount",
      "outputs": [
        {
          "internalType": "uint256",
          "name": "_value",
          "type": "uint256"
        }
      ],
      "stateMutability": "view",
      "type": "function"
    },
    {
      "inputs": [
        {
          "internalType": "uint256",
          "name": "",
          "type": "uint256"
        }
      ],
      "name": "_ownedTokensIndex",
      "outputs": [
        {
          "internalType": "uint256",
          "name": "",
          "type": "uint256"
        }
      ],
      "stateMutability": "view",
      "type": "function"
    },
    {
      "inputs": [],
      "name": "_owner",
      "outputs": [
        {
          "internalType": "address",
          "name": "",
          "type": "address"
        }
      ],
      "stateMutability": "view",
      "type": "function"
    },
    {
      "inputs": [],
      "name": "_symbol",
      "outputs": [
        {
          "internalType": "string",
          "name": "",
          "type": "string"
        }
      ],
      "stateMutability": "view",
      "type": "function"
    },
    {
      "inputs": [
        {
          "internalType": "uint256",
          "name": "",
          "type": "uint256"
        }
      ],
      "name": "_tokenApprovals",
      "outputs": [
        {
          "internalType": "address",
          "name": "",
          "type": "address"
        }
      ],
      "stateMutability": "view",
      "type": "function"
    },
    {
      "inputs": [
        {
          "internalType": "uint256",
          "name": "",
          "type": "uint256"
        }
      ],
      "name": "_tokenAttributes",
      "outputs": [
        {
          "internalType": "bytes",
          "name": "",
          "type": "bytes"
        }
      ],
      "stateMutability": "view",
      "type": "function"
    },
    {
      "inputs": [
        {
          "internalType": "uint256",
          "name": "",
          "type": "uint256"
        }
      ],
      "name": "_tokenOwner",
      "outputs": [
        {
          "internalType": "address",
          "name": "",
          "type": "address"
        }
      ],
      "stateMutability": "view",
      "type": "function"
    },
    {
      "inputs": [
        {
          "internalType": "uint256",
          "name": "",
          "type": "uint256"
        }
      ],
      "name": "_tokenURIs",
      "outputs": [
        {
          "internalType": "string",
          "name": "",
          "type": "string"
        }
      ],
      "stateMutability": "view",
      "type": "function"
    },
    {
      "inputs": [],
      "name": "allTokens",
      "outputs": [
        {
          "internalType": "uint256[]",
          "name": "",
          "type": "uint256[]"
        }
      ],
      "stateMutability": "view",
      "type": "function"
    },
    {
      "inputs": [
        {
          "internalType": "address",
          "name": "to",
          "type": "address"
        },
        {
          "internalType": "uint256",
          "name": "tokenId",
          "type": "uint256"
        }
      ],
      "name": "approve",
      "outputs": [],
      "stateMutability": "nonpayable",
      "type": "function"
    },
    {
      "inputs": [
        {
          "internalType": "address",
          "name": "owner_",
          "type": "address"
        }
      ],
      "name": "balanceOf",
      "outputs": [
        {
          "internalType": "uint256",
          "name": "",
          "type": "uint256"
        }
      ],
      "stateMutability": "view",
      "type": "function"
    },
    {
      "inputs": [],
      "name": "baseURI",
      "outputs": [
        {
          "internalType": "string",
          "name": "",
          "type": "string"
        }
      ],
      "stateMutability": "view",
      "type": "function"
    },
    {
      "inputs": [
        {
          "internalType": "uint256",
          "name": "tokenId",
          "type": "uint256"
        }
      ],
      "name": "getApproved",
      "outputs": [
        {
          "internalType": "address",
          "name": "",
          "type": "address"
        }
      ],
      "stateMutability": "view",
      "type": "function"
    },
    {
      "inputs": [
        {
          "internalType": "address",
          "name": "owner_",
          "type": "address"
        },
        {
          "internalType": "address",
          "name": "operator",
          "type": "address"
        }
      ],
      "name": "isApprovedForAll",
      "outputs": [
        {
          "internalType": "bool",
          "name": "",
          "type": "bool"
        }
      ],
      "stateMutability": "view",
      "type": "function"
    },
    {
      "inputs": [
        {
          "internalType": "address",
          "name": "addr",
          "type": "address"
        }
      ],
      "name": "isOwner",
      "outputs": [
        {
          "internalType": "bool",
          "name": "",
          "type": "bool"
        }
      ],
      "stateMutability": "view",
      "type": "function"
    },
    {
      "inputs": [
        {
          "internalType": "uint256",
          "name": "tokenId",
          "type": "uint256"
        },
        {
          "internalType": "bytes",
          "name": "attribute",
          "type": "bytes"
        },
        {
          "internalType": "address",
          "name": "to",
          "type": "address"
        }
      ],
      "name": "mint",
      "outputs": [],
      "stateMutability": "nonpayable",
      "type": "function"
    },
    {
      "inputs": [
        {
          "internalType": "uint256[]",
          "name": "tokenIds",
          "type": "uint256[]"
        },
        {
          "internalType": "bytes[]",
          "name": "attributes",
          "type": "bytes[]"
        },
        {
          "internalType": "address",
          "name": "to",
          "type": "address"
        }
      ],
      "name": "multiMint",
      "outputs": [],
      "stateMutability": "nonpayable",
      "type": "function"
    },
    {
      "inputs": [],
      "name": "name",
      "outputs": [
        {
          "internalType": "string",
          "name": "",
          "type": "string"
        }
      ],
      "stateMutability": "view",
      "type": "function"
    },
    {
      "inputs": [],
      "name": "owner",
      "outputs": [
        {
          "internalType": "address",
          "name": "",
          "type": "address"
        }
      ],
      "stateMutability": "view",
      "type": "function"
    },
    {
      "inputs": [
        {
          "internalType": "uint256",
          "name": "tokenId",
          "type": "uint256"
        }
      ],
      "name": "ownerOf",
      "outputs": [
        {
          "internalType": "address",
          "name": "",
          "type": "address"
        }
      ],
      "stateMutability": "view",
      "type": "function"
    },
    {
      "inputs": [],
      "name": "pauseProxy",
      "outputs": [
        {
          "internalType": "bool",
          "name": "",
          "type": "bool"
        }
      ],
      "stateMutability": "view",
      "type": "function"
    },
    {
      "inputs": [
        {
          "internalType": "address",
          "name": "from",
          "type": "address"
        },
        {
          "internalType": "address",
          "name": "to",
          "type": "address"
        },
        {
          "internalType": "uint256",
          "name": "tokenId",
          "type": "uint256"
        }
      ],
      "name": "safeTransferFrom",
      "outputs": [],
      "stateMutability": "nonpayable",
      "type": "function"
    },
    {
      "inputs": [
        {
          "internalType": "address",
          "name": "from",
          "type": "address"
        },
        {
          "internalType": "address",
          "name": "to",
          "type": "address"
        },
        {
          "internalType": "uint256",
          "name": "tokenId",
          "type": "uint256"
        },
        {
          "internalType": "bytes",
          "name": "_data",
          "type": "bytes"
        }
      ],
      "name": "safeTransferFrom",
      "outputs": [],
      "stateMutability": "nonpayable",
      "type": "function"
    },
    {
      "inputs": [
        {
          "internalType": "address",
          "name": "operator",
          "type": "address"
        },
        {
          "internalType": "bool",
          "name": "approved",
          "type": "bool"
        }
      ],
      "name": "setApprovalForAll",
      "outputs": [],
      "stateMutability": "nonpayable",
      "type": "function"
    },
    {
      "inputs": [
        {
          "internalType": "uint256",
          "name": "tokenId",
          "type": "uint256"
        },
        {
          "internalType": "bytes",
          "name": "_attribute",
          "type": "bytes"
        }
      ],
      "name": "setAttribute",
      "outputs": [],
      "stateMutability": "nonpayable",
      "type": "function"
    },
    {
      "inputs": [
        {
          "internalType": "uint256[]",
          "name": "tokenIds",
          "type": "uint256[]"
        },
        {
          "internalType": "bytes[]",
          "name": "_attributes",
          "type": "bytes[]"
        }
      ],
      "name": "setAttributes",
      "outputs": [],
      "stateMutability": "nonpayable",
      "type": "function"
    },
    {
      "inputs": [
        {
          "internalType": "string",
          "name": "baseURI_",
          "type": "string"
        }
      ],
      "name": "setBaseURI",
      "outputs": [],
      "stateMutability": "nonpayable",
      "type": "function"
    },
    {
      "inputs": [
        {
          "internalType": "uint256",
          "name": "tokenId",
          "type": "uint256"
        },
        {
          "internalType": "string",
          "name": "_tokenURI",
          "type": "string"
        }
      ],
      "name": "setTokenURI",
      "outputs": [],
      "stateMutability": "nonpayable",
      "type": "function"
    },
    {
      "inputs": [
        {
          "internalType": "uint256[]",
          "name": "tokenIds",
          "type": "uint256[]"
        },
        {
          "internalType": "string[]",
          "name": "_tokenURIs",
          "type": "string[]"
        }
      ],
      "name": "setTokenURI",
      "outputs": [],
      "stateMutability": "nonpayable",
      "type": "function"
    },
    {
      "inputs": [
        {
          "internalType": "bytes4",
          "name": "interfaceId",
          "type": "bytes4"
        }
      ],
      "name": "supportsInterface",
      "outputs": [
        {
          "internalType": "bool",
          "name": "",
          "type": "bool"
        }
      ],
      "stateMutability": "view",
      "type": "function"
    },
    {
      "inputs": [],
      "name": "symbol",
      "outputs": [
        {
          "internalType": "string",
          "name": "",
          "type": "string"
        }
      ],
      "stateMutability": "view",
      "type": "function"
    },
    {
      "inputs": [
        {
          "internalType": "uint256",
          "name": "index",
          "type": "uint256"
        }
      ],
      "name": "tokenByIndex",
      "outputs": [
        {
          "internalType": "uint256",
          "name": "",
          "type": "uint256"
        }
      ],
      "stateMutability": "view",
      "type": "function"
    },
    {
      "inputs": [
        {
          "internalType": "address",
          "name": "owner_",
          "type": "address"
        },
        {
          "internalType": "uint256",
          "name": "index",
          "type": "uint256"
        }
      ],
      "name": "tokenOfOwnerByIndex",
      "outputs": [
        {
          "internalType": "uint256",
          "name": "",
          "type": "uint256"
        }
      ],
      "stateMutability": "view",
      "type": "function"
    },
    {
      "inputs": [
        {
          "internalType": "uint256",
          "name": "tokenId",
          "type": "uint256"
        }
      ],
      "name": "tokenURI",
      "outputs": [
        {
          "internalType": "string",
          "name": "",
          "type": "string"
        }
      ],
      "stateMutability": "view",
      "type": "function"
    },
    {
      "inputs": [
        {
          "internalType": "address",
          "name": "owner_",
          "type": "address"
        }
      ],
      "name": "tokensOfOwner",
      "outputs": [
        {
          "internalType": "uint256[]",
          "name": "",
          "type": "uint256[]"
        }
      ],
      "stateMutability": "view",
      "type": "function"
    },
    {
      "inputs": [],
      "name": "totalSupply",
      "outputs": [
        {
          "internalType": "uint256",
          "name": "",
          "type": "uint256"
        }
      ],
      "stateMutability": "view",
      "type": "function"
    },
    {
      "inputs": [
        {
          "internalType": "address",
          "name": "from",
          "type": "address"
        },
        {
          "internalType": "address",
          "name": "to",
          "type": "address"
        },
        {
          "internalType": "uint256",
          "name": "tokenId",
          "type": "uint256"
        }
      ],
      "name": "transferFrom",
      "outputs": [],
      "stateMutability": "nonpayable",
      "type": "function"
    }
  ],
  "bytecode": "0x60806040523480156200001157600080fd5b50604051620032be380380620032be8339810160408190526200003491620002c3565b620000466301ffc9a760e01b620000cc565b600180546001600160a01b0319166001600160a01b03831617905582516200007690600290602086019062000150565b5081516200008c90600390602085019062000150565b506200009f6380ac58cd60e01b620000cc565b620000b1635b5e139f60e01b620000cc565b620000c363780e9d6360e01b620000cc565b5050506200038d565b6001600160e01b031980821614156200012b5760405162461bcd60e51b815260206004820152601c60248201527f4552433136353a20696e76616c696420696e7465726661636520696400000000604482015260640160405180910390fd5b6001600160e01b0319166000908152602081905260409020805460ff19166001179055565b8280546200015e9062000350565b90600052602060002090601f016020900481019282620001825760008555620001cd565b82601f106200019d57805160ff1916838001178555620001cd565b82800160010185558215620001cd579182015b82811115620001cd578251825591602001919060010190620001b0565b50620001db929150620001df565b5090565b5b80821115620001db5760008155600101620001e0565b634e487b7160e01b600052604160045260246000fd5b600082601f8301126200021e57600080fd5b81516001600160401b03808211156200023b576200023b620001f6565b604051601f8301601f19908116603f01168101908282118183101715620002665762000266620001f6565b816040528381526020925086838588010111156200028357600080fd5b600091505b83821015620002a7578582018301518183018401529082019062000288565b83821115620002b95760008385830101525b9695505050505050565b600080600060608486031215620002d957600080fd5b83516001600160401b0380821115620002f157600080fd5b620002ff878388016200020c565b945060208601519150808211156200031657600080fd5b5062000325868287016200020c565b604086015190935090506001600160a01b03811681146200034557600080fd5b809150509250925092565b600181811c908216806200036557607f821691505b602082108114156200038757634e487b7160e01b600052602260045260246000fd5b50919050565b612f21806200039d6000396000f3fe608060405234801561001057600080fd5b50600436106103155760003560e01c80638462151c116101a7578063aafb2d44116100ee578063d28d885211610097578063edc3bc3f11610071578063edc3bc3f146106e4578063f47c387814610712578063f66317181461072557600080fd5b8063d28d885214610692578063dece68541461069a578063e985e9c5146106a857600080fd5b8063b2bdfa7b116100c8578063b2bdfa7b14610659578063b88d4fde1461066c578063c87b56dd1461067f57600080fd5b8063aafb2d4414610630578063b01ac59114610643578063b09f12661461065157600080fd5b80639be10b9611610150578063a72636651161012a578063a7263665146105d4578063a7cc0136146105f4578063aa5965ae1461061d57600080fd5b80639be10b961461058e578063a22cb465146105a1578063a2e9b439146105b457600080fd5b80638da5cb5b116101815780638da5cb5b1461056757806394a509dd1461057857806395d89b411461058657600080fd5b80638462151c1461051a57806388290adc1461052d578063897f41521461055457600080fd5b806342842e0e1161026b57806363a8fd891161021457806370a08231116101ee57806370a08231146104d6578063743976a0146104e9578063796db312146104f157600080fd5b806363a8fd89146104a75780636c0360eb146104b95780636ff97f1d146104c157600080fd5b80634f6ccce7116102455780634f6ccce71461046e57806355f804b3146104815780636352211e1461049457600080fd5b806342842e0e146104355780634a1dbdc0146104485780634f3c5f061461045b57600080fd5b8063162094c4116102cd57806323b872dd116102a757806323b872dd146103fc5780632f54bf6e1461040f5780632f745c591461042257600080fd5b8063162094c4146103c457806317a3a79c146103d757806318160ddd146103ea57600080fd5b8063081812fc116102fe578063081812fc14610371578063095ea7b31461039c5780630bb78ec1146103b157600080fd5b806301ffc9a71461031a57806306fdde031461035c575b600080fd5b6103476103283660046126f5565b6001600160e01b03191660009081526020819052604090205460ff1690565b60405190151581526020015b60405180910390f35b610364610745565b6040516103539190612771565b61038461037f366004612784565b6107d7565b6040516001600160a01b039091168152602001610353565b6103af6103aa3660046127b4565b610873565b005b6103646103bf366004612784565b6109a9565b6103af6103d2366004612895565b610a43565b6103646103e5366004612784565b610afd565b600d545b604051908152602001610353565b6103af61040a3660046128dc565b610b16565b61034761041d366004612918565b610b93565b6103ee6104303660046127b4565b610bc1565b6103af6104433660046128dc565b610c63565b6103af610456366004612a42565b610c7e565b6103ee6104693660046127b4565b610dd5565b6103ee61047c366004612784565b610e06565b6103af61048f366004612a9c565b610e90565b6103846104a2366004612784565b610ef0565b600f5461034790610100900460ff1681565b610364610f81565b6104c9610f90565b6040516103539190612ad1565b6103ee6104e4366004612918565b610fe7565b610364611083565b6103846104ff366004612784565b6007602052600090815260409020546001600160a01b031681565b6104c9610528366004612918565b611090565b61053b630a85bd0160e11b81565b6040516001600160e01b03199091168152602001610353565b6103af610562366004612b15565b6110fc565b6001546001600160a01b0316610384565b61053b635b5e139f60e01b81565b610364611362565b6103af61059c366004612895565b611371565b6103af6105af366004612b89565b61141d565b6103ee6105c2366004612784565b600c6020526000908152604090205481565b6103ee6105e2366004612784565b600e6020526000908152604090205481565b610384610602366004612784565b6008602052600090815260409020546001600160a01b031681565b6103ee61062b366004612784565b6114e2565b6103af61063e366004612bc5565b611503565b61053b63780e9d6360e01b81565b61036461164b565b600154610384906001600160a01b031681565b6103af61067a366004612c9a565b611658565b61036461068d366004612784565b6116dc565b610364611846565b61053b6380ac58cd60e01b81565b6103476106b6366004612d02565b6001600160a01b039182166000908152600a6020908152604080832093909416825291909152205460ff1690565b6103476106f2366004612d02565b600a60209081526000928352604080842090915290825290205460ff1681565b6103af610720366004612d35565b611853565b6103ee610733366004612918565b60096020526000908152604090205481565b60606002805461075490612d74565b80601f016020809104026020016040519081016040528092919081815260200182805461078090612d74565b80156107cd5780601f106107a2576101008083540402835291602001916107cd565b820191906000526020600020905b8154815290600101906020018083116107b057829003601f168201915b5050505050905090565b6000818152600760205260408120546001600160a01b03166108575760405162461bcd60e51b815260206004820152602e60248201527f546974616e4e46543a20617070726f76656420717565727920666f72206e6f6e60448201526d32bc34b9ba32b73a103a37b5b2b760911b60648201526084015b60405180910390fd5b506000908152600860205260409020546001600160a01b031690565b600061087e82610ef0565b9050806001600160a01b0316836001600160a01b031614156108ee5760405162461bcd60e51b815260206004820152602360248201527f546974616e4e46543a20617070726f76616c20746f2063757272656e74206f776044820152623732b960e91b606482015260840161084e565b336001600160a01b038216148061092857506001600160a01b0381166000908152600a6020908152604080832033845290915290205460ff165b61099a5760405162461bcd60e51b815260206004820152603a60248201527f546974616e4e46543a20617070726f76652063616c6c6572206973206e6f742060448201527f6f776e6572206e6f7220617070726f76656420666f7220616c6c000000000000606482015260840161084e565b6109a48383611994565b505050565b600460205260009081526040902080546109c290612d74565b80601f01602080910402602001604051908101604052809291908181526020018280546109ee90612d74565b8015610a3b5780601f10610a1057610100808354040283529160200191610a3b565b820191906000526020600020905b815481529060010190602001808311610a1e57829003601f168201915b505050505081565b6001546001600160a01b03163314610a975760405162461bcd60e51b815260206004820152601760248201527631b0b63632b91034b9903737ba103a34329037bbb732b960491b604482015260640161084e565b600f5460ff16151560011415610ad85760405162461bcd60e51b8152602060048201526006602482015265696e2075736560d01b604482015260640161084e565b600f805460ff19166001179055610aef8282611a02565b5050600f805460ff19169055565b600560205260009081526040902080546109c290612d74565b610b203382611a94565b610b885760405162461bcd60e51b815260206004820152603360248201527f546974616e4e46543a207472616e736665722063616c6c6572206973206e6f74604482015272081bdddb995c881b9bdc88185c1c1c9bdd9959606a1b606482015260840161084e565b6109a4838383611b8d565b6001546000906001600160a01b0383811691161415610bb457506001919050565b506000919050565b919050565b6000610bcc83610fe7565b8210610c265760405162461bcd60e51b815260206004820152602360248201527f546974616e4e46543a206f776e657220696e646578206f7574206f6620626f756044820152626e647360e81b606482015260840161084e565b6001600160a01b0383166000908152600b60205260409020805483908110610c5057610c50612daf565b9060005260206000200154905092915050565b6109a483838360405180602001604052806000815250611658565b6001546001600160a01b03163314610cd25760405162461bcd60e51b815260206004820152601760248201527631b0b63632b91034b9903737ba103a34329037bbb732b960491b604482015260640161084e565b600f5460ff16151560011415610d135760405162461bcd60e51b8152602060048201526006602482015265696e2075736560d01b604482015260640161084e565b600f805460ff19166001179055815115801590610d31575080518251145b610d6c5760405162461bcd60e51b815260206004820152600c60248201526b0eee4dedcce40d8cadccee8d60a31b604482015260640161084e565b60005b8251811015610dc657610db4838281518110610d8d57610d8d612daf565b6020026020010151838381518110610da757610da7612daf565b6020026020010151611d6c565b80610dbe81612ddb565b915050610d6f565b5050600f805460ff1916905550565b600b6020528160005260406000208181548110610df157600080fd5b90600052602060002001600091509150505481565b6000610e11600d5490565b8210610e6b5760405162461bcd60e51b8152602060048201526024808201527f546974616e4e46543a20676c6f62616c20696e646578206f7574206f6620626f604482015263756e647360e01b606482015260840161084e565b600d8281548110610e7e57610e7e612daf565b90600052602060002001549050919050565b6001546001600160a01b03163314610ee45760405162461bcd60e51b815260206004820152601760248201527631b0b63632b91034b9903737ba103a34329037bbb732b960491b604482015260640161084e565b610eed81611e3c565b50565b6000818152600760205260408120546001600160a01b031680610f7b5760405162461bcd60e51b815260206004820152602b60248201527f546974616e4e46543a206f776e657220717565727920666f72206e6f6e65786960448201527f7374656e7420746f6b656e000000000000000000000000000000000000000000606482015260840161084e565b92915050565b60606006805461075490612d74565b6060600d8054806020026020016040519081016040528092919081815260200182805480156107cd57602002820191906000526020600020905b815481526020019060010190808311610fca575050505050905090565b60006001600160a01b0382166110655760405162461bcd60e51b815260206004820152602c60248201527f546974616e4e46543a2062616c616e636520717565727920666f72207468652060448201527f7a65726f20616464726573730000000000000000000000000000000000000000606482015260840161084e565b6001600160a01b038216600090815260096020526040902054610f7b565b600680546109c290612d74565b6001600160a01b0381166000908152600b60209081526040918290208054835181840281018401909452808452606093928301828280156110f057602002820191906000526020600020905b8154815260200190600101908083116110dc575b50505050509050919050565b6001546001600160a01b031633146111505760405162461bcd60e51b815260206004820152601760248201527631b0b63632b91034b9903737ba103a34329037bbb732b960491b604482015260640161084e565b600f5460ff161515600114156111915760405162461bcd60e51b8152602060048201526006602482015265696e2075736560d01b604482015260640161084e565b600f805460ff191660011790558251158015906111af575081518351145b6111ea5760405162461bcd60e51b815260206004820152600c60248201526b0eee4dedcce40d8cadccee8d60a31b604482015260640161084e565b60005b8351811015611352576112198285838151811061120c5761120c612daf565b6020026020010151611e53565b61123b84828151811061122e5761122e612daf565b6020026020010151611e6d565b6004600086848151811061125157611251612daf565b60200260200101518152602001908152602001600020908051906020019061127a929190612646565b5082818151811061128d5761128d612daf565b6020026020010151600560008684815181106112ab576112ab612daf565b6020026020010151815260200190815260200160002090805190602001906112d4929190612646565b507f4d9b1f1701290894a3ce2b80ebc08192c14f3750d521c806657dc51b9705260a84828151811061130857611308612daf565b602002602001015184838151811061132257611322612daf565b6020026020010151604051611338929190612df6565b60405180910390a18061134a81612ddb565b9150506111ed565b5050600f805460ff191690555050565b60606003805461075490612d74565b6001546001600160a01b031633146113c55760405162461bcd60e51b815260206004820152601760248201527631b0b63632b91034b9903737ba103a34329037bbb732b960491b604482015260640161084e565b600f5460ff161515600114156114065760405162461bcd60e51b8152602060048201526006602482015265696e2075736560d01b604482015260640161084e565b600f805460ff19166001179055610aef8282611d6c565b6001600160a01b0382163314156114765760405162461bcd60e51b815260206004820152601b60248201527f546974616e4e46543a20617070726f766520746f2063616c6c65720000000000604482015260640161084e565b336000818152600a602090815260408083206001600160a01b03871680855290835292819020805460ff191686151590811790915590519081529192917f17307eab39ab6107e8899845ad3d59bd9653f200f220920489ca2b5937696c31910160405180910390a35050565b600d81815481106114f257600080fd5b600091825260209091200154905081565b6001546001600160a01b031633146115575760405162461bcd60e51b815260206004820152601760248201527631b0b63632b91034b9903737ba103a34329037bbb732b960491b604482015260640161084e565b600f5460ff161515600114156115985760405162461bcd60e51b8152602060048201526006602482015265696e2075736560d01b604482015260640161084e565b600f805460ff191660011790558151158015906115b6575080518251145b6115f15760405162461bcd60e51b815260206004820152600c60248201526b0eee4dedcce40d8cadccee8d60a31b604482015260640161084e565b60005b8251811015610dc65761163983828151811061161257611612612daf565b602002602001015183838151811061162c5761162c612daf565b6020026020010151611a02565b8061164381612ddb565b9150506115f4565b600380546109c290612d74565b6116623383611a94565b6116ca5760405162461bcd60e51b815260206004820152603360248201527f546974616e4e46543a207472616e736665722063616c6c6572206973206e6f74604482015272081bdddb995c881b9bdc88185c1c1c9bdd9959606a1b606482015260840161084e565b6116d684848484611f17565b50505050565b6000818152600760205260409020546060906001600160a01b03166117435760405162461bcd60e51b815260206004820152601b60248201527f546974616e4e46543a206e6f6e6578697374656e7420746f6b656e0000000000604482015260640161084e565b6000828152600460205260408120805461175c90612d74565b80601f016020809104026020016040519081016040528092919081815260200182805461178890612d74565b80156117d55780601f106117aa576101008083540402835291602001916117d5565b820191906000526020600020905b8154815290600101906020018083116117b857829003601f168201915b5050505050905060006117e6610f81565b90508051600014156117f9575092915050565b81511561182b578082604051602001611813929190612e0f565b60405160208183030381529060405292505050919050565b8061183585611e6d565b604051602001611813929190612e0f565b600280546109c290612d74565b6001546001600160a01b031633146118a75760405162461bcd60e51b815260206004820152601760248201527631b0b63632b91034b9903737ba103a34329037bbb732b960491b604482015260640161084e565b600f5460ff161515600114156118e85760405162461bcd60e51b8152602060048201526006602482015265696e2075736560d01b604482015260640161084e565b600f805460ff191660011790556118ff8184611e53565b61190883611e6d565b6000848152600460209081526040909120825161192b9391929190910190612646565b506000838152600560209081526040909120835161194b92850190612646565b507f4d9b1f1701290894a3ce2b80ebc08192c14f3750d521c806657dc51b9705260a838360405161197d929190612df6565b60405180910390a15050600f805460ff1916905550565b600081815260086020526040902080546001600160a01b0319166001600160a01b03841690811790915581906119c982610ef0565b6001600160a01b03167f8c5be1e5ebec7d5bd14f71427d1e84f3dd0314c0f7b2291e5b200ac8c7c3b92560405160405180910390a45050565b6000828152600760205260409020546001600160a01b0316611a755760405162461bcd60e51b815260206004820152602660248201527f546974616e4e46543a2055524920736574206f66206e6f6e6578697374656e74604482015265103a37b5b2b760d11b606482015260840161084e565b600082815260046020908152604090912082516109a492840190612646565b6000818152600760205260408120546001600160a01b0316611b0f5760405162461bcd60e51b815260206004820152602e60248201527f546974616e4e46543a206f70657261746f7220717565727920666f72206e6f6e60448201526d32bc34b9ba32b73a103a37b5b2b760911b606482015260840161084e565b6000611b1a83610ef0565b9050806001600160a01b0316846001600160a01b03161480611b555750836001600160a01b0316611b4a846107d7565b6001600160a01b0316145b80611b8557506001600160a01b038082166000908152600a602090815260408083209388168352929052205460ff165b949350505050565b826001600160a01b0316611ba082610ef0565b6001600160a01b031614611c1c5760405162461bcd60e51b815260206004820152602f60248201527f50726f6a656374546f6b656e3a207472616e73666572206f6620746f6b656e2060448201527f74686174206973206e6f74206f776e0000000000000000000000000000000000606482015260840161084e565b6001600160a01b038216611c855760405162461bcd60e51b815260206004820152602a60248201527f50726f6a656374546f6b656e3a207472616e7366657220746f20746865207a65604482015269726f206164647265737360b01b606482015260840161084e565b611c8e81611fa0565b6001600160a01b0383166000908152600960205260409020611caf90611fdb565b6001600160a01b038216600090815260096020526040902080546001019055600081815260076020526040902080546001600160a01b0319166001600160a01b038416179055611cff8382612032565b6001600160a01b038281166000818152600b602081815260408084208054888652600c845282862081905593835260018401815584529083209091018590555184938716917fddf252ad1be2c89b69c2b068fc378daa952ba7f163c4a11628f55a4df523b3ef91a4505050565b6000828152600760205260409020546001600160a01b0316611ddf5760405162461bcd60e51b815260206004820152602660248201527f546974616e4e46543a2055524920736574206f66206e6f6e6578697374656e74604482015265103a37b5b2b760d11b606482015260840161084e565b60008281526005602090815260409091208251611dfe92840190612646565b507f4d9b1f1701290894a3ce2b80ebc08192c14f3750d521c806657dc51b9705260a8282604051611e30929190612df6565b60405180910390a15050565b8051611e4f906006906020840190612646565b5050565b611e4f828260405180602001604052806000815250612141565b60606000611e7a83612241565b600101905060008167ffffffffffffffff811115611e9a57611e9a6127de565b6040519080825280601f01601f191660200182016040528015611ec4576020820181803683370190505b5090508181016020015b600019017f3031323334353637383961626364656600000000000000000000000000000000600a86061a8153600a8504945084611f0a57611f0f565b611ece565b509392505050565b611f22848484611b8d565b611f2e84848484612323565b6116d65760405162461bcd60e51b815260206004820152603460248201527f546974616e4e46543a207472616e7366657220746f206e6f6e2045524337323160448201527f526563656976657220696d706c656d656e746572000000000000000000000000606482015260840161084e565b6000818152600860205260409020546001600160a01b031615610eed57600090815260086020526040902080546001600160a01b0319169055565b80548061202a5760405162461bcd60e51b815260206004820152601b60248201527f436f756e7465723a2064656372656d656e74206f766572666c6f770000000000604482015260640161084e565b600019019055565b6001600160a01b0382166000908152600b602052604081205461205790600190612e3e565b6000838152600c60205260409020549091508082146120fe576001600160a01b0384166000908152600b6020526040812080548490811061209a5761209a612daf565b9060005260206000200154905080600b6000876001600160a01b03166001600160a01b0316815260200190815260200160002083815481106120de576120de612daf565b6000918252602080832090910192909255918252600c9052604090208190555b6001600160a01b0384166000908152600b6020526040902080548061212557612125612e55565b6001900381819060005260206000200160009055905550505050565b61214b83836123f4565b6001600160a01b0383166000908152600b602090815260408083208054868552600c84528285208190556001808201835591855283852001869055600d8054878652600e9094529184208390558201815582527fd7b6990105719101dabeb77144f2a3385c8033acd3af97e9423a695e81ad1eb5018390556121cf90848484612323565b6109a45760405162461bcd60e51b815260206004820152603460248201527f546974616e4e46543a207472616e7366657220746f206e6f6e2045524337323160448201527f526563656976657220696d706c656d656e746572000000000000000000000000606482015260840161084e565b6000807a184f03e93ff9f4daa797ed6e38ed64bf6a1f010000000000000000831061228a577a184f03e93ff9f4daa797ed6e38ed64bf6a1f010000000000000000830492506040015b6d04ee2d6d415b85acef810000000083106122b6576d04ee2d6d415b85acef8100000000830492506020015b662386f26fc1000083106122d457662386f26fc10000830492506010015b6305f5e10083106122ec576305f5e100830492506008015b612710831061230057612710830492506004015b60648310612312576064830492506002015b600a8310610f7b5760010192915050565b60006001600160a01b0384163b61233c57506001611b85565b60006123bd63150b7a0260e01b338887876040516024016123609493929190612e6b565b604051602081830303815290604052906001600160e01b0319166020820180516001600160e01b038381831617835250505050604051806060016040528060348152602001612ee1603491396001600160a01b0388169190612526565b90506000818060200190518101906123d59190612ea7565b6001600160e01b031916630a85bd0160e11b1492505050949350505050565b6001600160a01b0382166124555760405162461bcd60e51b815260206004820152602260248201527f546974616e4e46543a206d696e7420746f20746865207a65726f206164647265604482015261737360f01b606482015260840161084e565b6000818152600760205260409020546001600160a01b0316156124ba5760405162461bcd60e51b815260206004820152601e60248201527f546974616e4e46543a20746f6b656e20616c7265616479206d696e7465640000604482015260640161084e565b600081815260076020908152604080832080546001600160a01b0319166001600160a01b038716908117909155808452600990925280832080546001019055518392907fddf252ad1be2c89b69c2b068fc378daa952ba7f163c4a11628f55a4df523b3ef908290a45050565b6060611b85848460008585600080866001600160a01b0316858760405161254d9190612ec4565b60006040518083038185875af1925050503d806000811461258a576040519150601f19603f3d011682016040523d82523d6000602084013e61258f565b606091505b50915091506125a0878383876125ab565b979650505050505050565b60608315612617578251612610576001600160a01b0385163b6126105760405162461bcd60e51b815260206004820152601d60248201527f416464726573733a2063616c6c20746f206e6f6e2d636f6e7472616374000000604482015260640161084e565b5081611b85565b611b85838381511561262c5781518083602001fd5b8060405162461bcd60e51b815260040161084e9190612771565b82805461265290612d74565b90600052602060002090601f01602090048101928261267457600085556126ba565b82601f1061268d57805160ff19168380011785556126ba565b828001600101855582156126ba579182015b828111156126ba57825182559160200191906001019061269f565b506126c69291506126ca565b5090565b5b808211156126c657600081556001016126cb565b6001600160e01b031981168114610eed57600080fd5b60006020828403121561270757600080fd5b8135612712816126df565b9392505050565b60005b8381101561273457818101518382015260200161271c565b838111156116d65750506000910152565b6000815180845261275d816020860160208601612719565b601f01601f19169290920160200192915050565b6020815260006127126020830184612745565b60006020828403121561279657600080fd5b5035919050565b80356001600160a01b0381168114610bbc57600080fd5b600080604083850312156127c757600080fd5b6127d08361279d565b946020939093013593505050565b634e487b7160e01b600052604160045260246000fd5b604051601f8201601f1916810167ffffffffffffffff8111828210171561281d5761281d6127de565b604052919050565b600082601f83011261283657600080fd5b813567ffffffffffffffff811115612850576128506127de565b612863601f8201601f19166020016127f4565b81815284602083860101111561287857600080fd5b816020850160208301376000918101602001919091529392505050565b600080604083850312156128a857600080fd5b82359150602083013567ffffffffffffffff8111156128c657600080fd5b6128d285828601612825565b9150509250929050565b6000806000606084860312156128f157600080fd5b6128fa8461279d565b92506129086020850161279d565b9150604084013590509250925092565b60006020828403121561292a57600080fd5b6127128261279d565b600067ffffffffffffffff82111561294d5761294d6127de565b5060051b60200190565b600082601f83011261296857600080fd5b8135602061297d61297883612933565b6127f4565b82815260059290921b8401810191818101908684111561299c57600080fd5b8286015b848110156129b757803583529183019183016129a0565b509695505050505050565b600082601f8301126129d357600080fd5b813560206129e361297883612933565b82815260059290921b84018101918181019086841115612a0257600080fd5b8286015b848110156129b757803567ffffffffffffffff811115612a265760008081fd5b612a348986838b0101612825565b845250918301918301612a06565b60008060408385031215612a5557600080fd5b823567ffffffffffffffff80821115612a6d57600080fd5b612a7986838701612957565b93506020850135915080821115612a8f57600080fd5b506128d2858286016129c2565b600060208284031215612aae57600080fd5b813567ffffffffffffffff811115612ac557600080fd5b611b8584828501612825565b6020808252825182820181905260009190848201906040850190845b81811015612b0957835183529284019291840191600101612aed565b50909695505050505050565b600080600060608486031215612b2a57600080fd5b833567ffffffffffffffff80821115612b4257600080fd5b612b4e87838801612957565b94506020860135915080821115612b6457600080fd5b50612b71868287016129c2565b925050612b806040850161279d565b90509250925092565b60008060408385031215612b9c57600080fd5b612ba58361279d565b915060208301358015158114612bba57600080fd5b809150509250929050565b60008060408385031215612bd857600080fd5b823567ffffffffffffffff80821115612bf057600080fd5b612bfc86838701612957565b9350602091508185013581811115612c1357600080fd5b8501601f81018713612c2457600080fd5b8035612c3261297882612933565b81815260059190911b82018401908481019089831115612c5157600080fd5b8584015b83811015612c8957803586811115612c6d5760008081fd5b612c7b8c8983890101612825565b845250918601918601612c55565b508096505050505050509250929050565b60008060008060808587031215612cb057600080fd5b612cb98561279d565b9350612cc76020860161279d565b925060408501359150606085013567ffffffffffffffff811115612cea57600080fd5b612cf687828801612825565b91505092959194509250565b60008060408385031215612d1557600080fd5b612d1e8361279d565b9150612d2c6020840161279d565b90509250929050565b600080600060608486031215612d4a57600080fd5b83359250602084013567ffffffffffffffff811115612d6857600080fd5b612b7186828701612825565b600181811c90821680612d8857607f821691505b60208210811415612da957634e487b7160e01b600052602260045260246000fd5b50919050565b634e487b7160e01b600052603260045260246000fd5b634e487b7160e01b600052601160045260246000fd5b6000600019821415612def57612def612dc5565b5060010190565b828152604060208201526000611b856040830184612745565b60008351612e21818460208801612719565b835190830190612e35818360208801612719565b01949350505050565b600082821015612e5057612e50612dc5565b500390565b634e487b7160e01b600052603160045260246000fd5b60006001600160a01b03808716835280861660208401525083604083015260806060830152612e9d6080830184612745565b9695505050505050565b600060208284031215612eb957600080fd5b8151612712816126df565b60008251612ed6818460208701612719565b919091019291505056fe546974616e4e46543a207472616e7366657220746f206e6f6e20455243373231526563656976657220696d706c656d656e746572a164736f6c6343000809000a",
  "linkReferences": {},
  "deployedLinkReferences": {}
}